:100000000EC028C036C126C025C089C123C022C069
:1000100021C020C01FC01EC01DC01CC01BC0112499
:100020001FBECFE5D2E0DEBFCDBF11E0A0E6B0E05D
:10003000E4EAF1E102C005900D92AE36B107D9F7BE
:1000400011E0AEE6B1E001C01D92AA38B107E1F7B8
:10005000FED0A6C8D5CF1ABC81E083BF12BE82E015
:1000600089BF0895CF93DF93EC01FB01853591059E
:10007000E4F463E070E024D864E070E033D8262F25
:10008000CF0163E070E01CD8FC01E258FE4F2083F2
:10009000CE016DEF7FEF14D881509F4F95958795D6
:1000A000959587958183128242C08A3A91050CF515
:1000B000DC01A555B040CD016DEF7FEF01D89C016B
:1000C00021503F4F3595279535952795CF0163E012
:1000D00070E0F6D7FC01E258FE4F20831182CD017B
:1000E00063E070E0EDD79595879595958795828328
:1000F0001EC09C012A5A3040CB0163E070E0E0D77B
:10010000FC01E258FE4F1082C90163E070E0D8D7CD
:1001100095958795959587958183C9016DEF7FEFBB
:10012000CFD781509F4F64E070E0DCD76283DF91CE
:10013000CF9108952F923F924F925F926F927F924C
:100140008F929F92AF92BF92CF92DF92EF92FF92E7
:100150000F931F93CF93DF9388249924482E55241F
:1001600066247724E6E02E2E312C4BC0CE01907011
:10017000B80178DF0F5F1F4F609604301105B1F7AB
:10018000C301B20133D55B016C012FE832E247E8CD
:1001900052E465D37B018C0120E030E040E85FE36E
:1001A000A9D488231CF461E070E01EC0C801B70127
:1001B00020E03FEF4FE757E447D4181694F4C60108
:1001C000B50120E030E040E251E449D384D105C0DC
:1001D000C1010197F1F76150704061157105C1F7D8
:1001E00006C0C801B70177D1CB010197F1F7089498
:1001F000811C911C8FEF8816910419F010F088244F
:100200009924E40100E010E0B1CF20E030E06FE09D
:100210004BEF51E4F901E258FE4F6083CA010197A8
:10022000F1F710826383CA010197F1F713826683A5
:10023000CA010197F1F716826187CA010197F1F7A8
:1002400011862F5F3F4F2330310521F708951ABCE7
:1002500081E083BF12BE82E089BF7894D6DF8AE056
:1002600069DF80E090E008958BB780628BBFA89A29
:1002700008951F920F920FB60F9211248F9385B796
:100280008F7D85BF8BB78F7D8BBFA8988F910F9087
:100290000FBE0F901F901895F89489B78D7F89BF76
:1002A00017BA81E088BBB09BFECF82E39DE0019747
:1002B000F1F722E33DE043E450E08BB780628BBF6F
:1002C000A89A85B7877E806185BF789485B780625C
:1002D00085BF889585B78F7D85BFC9010197F1F7E7
:1002E000B09BFECFC9010197F1F780E090E0B09B91
:1002F00009C0FA013197F1F7019661E0843F960752
:10030000B1F7DBCF85E690E090936F0180936E01AB
:100310001ABC81E083BF12BE82E089BF08951F929C
:100320000F920FB60F9211242F933F935F936F9309
:100330007F938F939F93EF93FF9320917B01809105
:100340007601821761F48091750190917201982372
:10035000909372019091640098239093640080912F
:100360007701821761F48091740190917201982352
:10037000909372019091640098239093640080910F
:100380007801821761F48091730190917201982332
:10039000909372019091640098239093640017BA2F
:1003A0008091640088BB8091720187BB922F9F5F10
:1003B00090937B0180EC82BF933209F07EC0109253
:1003C0007B0180917C0190917D01049721F4109232
:1003D0007D0110927C0120917C0130917D012115DD
:1003E000310591F410927A01109279018FE0809397
:1003F00072018EE08093640087EF809375018BEF2C
:10040000809374018DEF3EC02130310591F430931B
:100410007A01209379018EE1809372018CE18093BF
:1004200064008BEF8093750187EF809374018FEEEA
:1004300029C02230310591F430937A01209379015B
:100440008EE1809372018EE0809364008DEF809343
:1004500075018BEF8093740187EF14C02330310551
:1004600099F430937A01209379018FE0809372019F
:1004700087E0809364008EEF809375018DEF809309
:1004800074018BEF809373018091790190917A01CF
:1004900063E070E015D6FC01E258FE4F8081809346
:1004A00076018181809377018281809378012F5F2B
:1004B0003F4F30937D0120937C01FF91EF919F91FD
:1004C0008F917F916F915F913F912F910F900FBE10
:1004D0000F901F901895EF92FF920F931F937B013F
:1004E0008C0120E030E040E05FE4D9D288237CF04A
:1004F000C801B70120E030E040E05FE45ED125D3E1
:100500009B01AC01205030404040504805C0C8011C
:10051000B7011BD39B01AC01B901CA011F910F9117
:10052000FF90EF900895A0E0B0E0E8E9F2E001C6A6
:10053000DC012B01FA019C91923008F439C1EB01E6
:100540008881823008F433C1943069F4843009F032
:100550002FC111969C9111978981981709F428C190
:10056000A5E6B0E025C1843009F421C18230A9F4A8
:10057000923009F01DC19A01AD0188E0EA010990AD
:10058000AE01E90109929E018150C1F7E201898122
:1005900011969C918923818308C1923009F407C187
:1005A00012962D903C901397EB018A819B811496B3
:1005B000AD90BD90CD90DC901797EC80FD800E81C2
:1005C0001F819101281B390BB90137FF04C0662731
:1005D0007727621B730B603271050CF061C0121635
:1005E00013066CF537014801062E04C096948794D3
:1005F000779467940A94D2F721E030E040E050E02D
:1006000004C0220F331F441F551F6A95D2F7215093
:100610003040404050402E213F214023512321159E
:1006200031054105510521F021E030E040E050E086
:1006300079018A01E628F728082919293CC0232BCB
:10064000D1F1260E371E35014601062E04C09694C0
:100650008794779467940A94D2F721E030E040E0E1
:1006600050E004C0220F331F441F551F6A95D2F774
:1006700021503040404050402A213B214C215D21F7
:10068000211531054105510521F021E030E040E020
:1006900050E059016A01A628B728C828D9280BC0FC
:1006A000821593052CF01C01AA24BB24650103C00C
:1006B000EE24FF24870111969C91D20111968C9112
:1006C000981709F445C0992339F0A80197012A1910
:1006D0003B094C095D0906C0A60195012E193F0989
:1006E000400B510B57FD08C01182338222822483B4
:1006F0003583468357831DC081E081833382228204
:1007000088279927DC01821B930BA40BB50B8483EC
:100710009583A683B7830DC0220F331F441F551F37
:100720002483358346835783828193810197938302
:1007300082832481358146815781DA01C90101977D
:10074000A109B1098F5F9F4FAF4FBF4328F30BC083
:10075000918333822282EA0CFB1C0C1D1D1DE48256
:10076000F5820683178383E0808324813581468167
:10077000578157FF1AC0C901AA2797FDA095BA2F24
:1007800081709070A070B0705695479537952795F9
:10079000822B932BA42BB52B84839583A683B783BD
:1007A00082819381019693838283DF0101C0D2010C
:1007B000CD01CDB7DEB7E2E1D8C4A0E2B0E0E2EE11
:1007C000F3E0C3C469837A838B839C832D833E8348
:1007D0004F835887E9E0EE2EF12CEC0EFD1ECE0182
:1007E0000196B7019CD38E010F5E1F4FCE01059677
:1007F000B80195D38A8991E089278A8BC701B8010E
:10080000AE01475E5F4F8FDEB5D2A096E6E0B9C479
:10081000A0E2B0E0EDE0F4E098C469837A838B83D2
:100820009C832D833E834F835887F9E0EF2EF12C74
:10083000EC0EFD1ECE010196B70171D38E010F5E45
:100840001F4FCE010596B8016AD3C701B801AE01AA
:10085000475E5F4F68DE8ED2A096E6E092C4A0E2CB
:10086000B0E0E4E3F4E065C469837A838B839C831E
:100870002D833E834F835887CE010196BE01675F6B
:100880007F4F4DD3CE010596BE016F5E7F4F47D39C
:100890009985923088F089898230C8F0943019F4B3
:1008A000823051F404C0843029F4923081F485E61A
:1008B00090E0C6C0923049F420E09A858A89981366
:1008C00021E02A87CE010996BBC0823049F420E09E
:1008D0009A858A89981321E02A8BCE014196B0C06F
:1008E0002D843E844F8458886D887E888F88988CAC
:1008F000EE24FF248701AA24BB24650140E050E0D8
:1009000060E070E0E0E0F0E0C10181709070892B60
:10091000E9F0E60CF71C081D191D9A01AB012A0D20
:100920003B1D4C1D5D1D80E090E0A0E0B0E0E614B2
:10093000F7040805190520F481E090E0A0E0B0E09C
:10094000BA01A901480F591F6A1F7B1FAA0CBB1CC3
:10095000CC1CDD1C97FE08C081E090E0A0E0B0E078
:10096000A82AB92ACA2ADB2A3196E032F10549F0D1
:10097000660C771C881C991C5694479437942794CE
:10098000C3CFFA85EA892B893C898B859C85280F02
:10099000391F2E5F3F4F17C0CA0181709070892B9D
:1009A00061F016950795F794E79480E090E0A0E059
:1009B000B0E8E82AF92A0A2B1B2B769567955795FC
:1009C00047952F5F3F4F77FDE7CF0CC0440F551F72
:1009D000661F771F17FD4160EE0CFF1C001F111FE3
:1009E00021503040403090E0590790E0690790E492
:1009F000790760F32B8F3C8FDB01CA018F779070F2
:100A0000A070B07080349105A105B10561F447FD77
:100A10000AC0E114F1040105110529F0405C5F4FA3
:100A20006F4F7F4F40781A8EFE1711F081E08A8F4A
:100A30004D8F5E8F6F8F78A383E0898FCE014996AB
:100A400099D1A096E2E191C3A8E1B0E0E9E2F5E036
:100A50007CC369837A838B839C832D833E834F83FE
:100A6000588789E0E82EF12CEC0EFD1ECE01019690
:100A7000B70155D28E010F5E1F4FCE010596B8010A
:100A80004ED28985823038F08989823020F0C701C2
:100A9000B801BDD201C08FEF6896E6E072C3A8E14D
:100AA000B0E0E4E5F5E051C369837A838B839C83EE
:100AB0002D833E834F83588789E0E82EF12CEC0E7E
:100AC000FD1ECE010196B7012AD28E010F5E1F4F87
:100AD000CE010596B80123D28985823038F0898904
:100AE000823020F0C701B80192D201C08FEF689622
:100AF000E6E047C3A8E1B0E0EFE7F5E026C369838D
:100B00007A838B839C832D833E834F83588789E030
:100B1000E82EF12CEC0EFD1ECE010196B701FFD19F
:100B20008E010F5E1F4FCE010596B801F8D1898561
:100B3000823038F08989823020F0C701B80167D24D
:100B400001C081E06896E6E01CC3ACE0B0E0EAEAF0
:100B5000F5E0FFC269837A838B839C83CE01019683
:100B6000BE016B5F7F4FDBD18D81823061F18230BE
:100B700050F1843021F48E81882351F12EC02F81D1
:100B8000388537FD20C06E812F3131051CF066237A
:100B9000F9F023C08EE190E0821B930B29853A8502
:100BA0004B855C8504C056954795379527958A9562
:100BB000D2F76623B1F050954095309521953F4F7F
:100BC0004F4F5F4F0EC020E030E040E050E009C0E2
:100BD0002FEF3FEF4FEF5FE704C020E030E040E051
:100BE00050E8B901CA012C96E2E0CFC2A8E0B0E01B
:100BF000EBEFF5E0A6C27B018C0161157105810563
:100C0000910519F482E089835FC083E089838EE1D6
:100C1000C82ED12CDC82CB82ED82FE820F83188716
:100C2000C801B70158D0FC013197F7FF3BC022271C
:100C300033272E1B3F0B57016801022E04C0D694A8
:100C4000C794B794A7940A94D2F740E050E060E0CC
:100C500070E081E090E0A0E0B0E004C0880F991F50
:100C6000AA1FBB1F2A95D2F70197A109B1098E21AE
:100C70009F21A023B1230097A105B10521F041E0F8
:100C800050E060E070E04A295B296C297D294D83A2
:100C90005E836F8378878EE190E08E1B9F0B9C8331
:100CA0008B8312C0309781F00E2E04C0EE0CFF1C17
:100CB000001F111F0A94D2F7ED82FE820F8318875E
:100CC000CE1ADF0ADC82CB821A82CE01019652D084
:100CD0002896EAE052C2EF92FF920F931F937B0196
:100CE0008C0180E0E81680E0F80681E0080780E0EB
:100CF000180788F48FEFE816F1040105110531F0AB
:100D000028F088E090E0A0E0B0E017C080E090E03C
:100D1000A0E0B0E012C080E0E81680E0F80680E0D5
:100D2000080781E0180728F088E190E0A0E0B0E033
:100D300004C080E190E0A0E0B0E020E230E040E0DC
:100D400050E0281B390B4A0B5B0B04C01695079526
:100D5000F794E7948A95D2F7F701E359FF4F808122
:100D6000281B310941095109C9011F910F91FF90B9
:100D7000EF900895DF92EF92FF920F931F93FC0183
:100D8000E480F58006811781D1808081823048F42B
:100D900080E090E0A0E1B0E0E82AF92A0A2B1B2BC2
:100DA000A5C0843009F49FC0823021F4EE24FF24D2
:100DB000870105C0E114F1040105110519F4E0E013
:100DC000F0E096C0628173819FEF623879070CF082
:100DD0005BC022E83FEF261B370B2A3131052CF090
:100DE00020E030E040E050E02AC0B801A701022E28
:100DF00004C076956795579547950A94D2F781E098
:100E000090E0A0E0B0E004C0880F991FAA1FBB1FAC
:100E10002A95D2F70197A109B1098E219F21A0231C
:100E2000B1230097A105B10521F081E090E0A0E099
:100E3000B0E09A01AB01282B392B4A2B5B2BDA014E
:100E4000C9018F779070A070B07080349105A105B2
:100E5000B10539F427FF09C0205C3F4F4F4F5F4F6A
:100E600004C0215C3F4F4F4F5F4FE0E0F0E0203087
:100E7000A0E03A07A0E04A07A0E45A0710F0E1E03A
:100E8000F0E079018A0127C06038710564F5FB0143
:100E9000E158FF4FD801C7018F779070A070B070F4
:100EA00080349105A105B10539F4E7FE0DC080E459
:100EB00090E0A0E0B0E004C08FE390E0A0E0B0E0FC
:100EC000E80EF91E0A1F1B1F17FF05C01695079590
:100ED000F794E794319687E016950795F794E79491
:100EE0008A95D1F705C0EE24FF248701EFEFF0E0EB
:100EF0006E2F679566276795902F9F77D794DD248F
:100F0000D7948E2F8695492F462B582F5D29B701F0
:100F1000CA011F910F91FF90EF90DF900895FC019F
:100F2000DB01408151812281622F6F7770E0221FA7
:100F30002227221F9381892F880F822B282F30E0B0
:100F4000991F9927991F11969C9311972115310587
:100F5000A9F5411551056105710511F482E037C00D
:100F600082E89FEF13969C938E9312979A01AB01A0
:100F700067E0220F331F441F551F6A95D1F783E0A6
:100F80008C930DC0220F331F441F551F12968D9155
:100F90009C911397019713969C938E9312972030F0
:100FA00080E0380780E0480780E4580758F314963B
:100FB0002D933D934D935C93179708952F3F3105E3
:100FC00079F4411551056105710519F484E08C939C
:100FD000089564FF03C081E08C9312C01C9210C07E
:100FE0002F57304013963C932E93129783E08C93A7
:100FF00087E0440F551F661F771F8A95D1F77064ED
:1010000014964D935D936D937C93179708951F935A
:10101000DC01FB019C91923008F447C08081823052
:1010200008F443C0943051F411961C91843099F522
:101030008181682F70E0611B71093FC0843021F00D
:10104000923031F48230B9F18181882389F12DC049
:1010500011961C9111978230F1F081811817D9F403
:1010600012962D913C911397828193818217930759
:1010700094F028173907BCF014968D919D910D902E
:10108000BC91A02D248135814681578128173907CD
:101090004A075B0718F4112341F00AC0821793072F
:1010A000A407B50740F4112319F061E070E005C012
:1010B0006FEF7FEF02C060E070E0CB011F910895F9
:1010C0005527002480FF02C0060E571F660F771FAA
:1010D0006115710521F096958795009799F7952FE1
:1010E000802D089597FB092E07260AD077FD04D09E
:1010F0000CD006D000201AF4709561957F4F0895AA
:10110000F6F7909581959F4F0895AA1BBB1B51E15F
:1011100007C0AA1FBB1FA617B70710F0A61BB70B67
:10112000881F991F5A95A9F780959095BC01CD010C
:1011300008952F923F924F925F926F927F928F927B
:101140009F92AF92BF92CF92DF92EF92FF920F9356
:101150001F93CF93DF93CDB7DEB7CA1BDB0B0FB660
:10116000F894DEBF0FBECDBF09942A88398848881D
:101170005F846E847D848C849B84AA84B984C884B3
:10118000DF80EE80FD800C811B81AA81B981CE0FAA
:10119000D11D0FB6F894DEBF0FBECDBFED0108958F
:0411A000F894FFCFF1
:1011A4000100010013000000000000000000010223
:1011B40002030303030404040404040404050505EE
:1011C40005050505050505050505050505060606C8
:1011D40006060606060606060606060606060606AB
:1011E4000606060606060606060606060607070798
:1011F400070707070707070707070707070707077B
:10120400070707070707070707070707070707076A
:10121400070707070707070707070707070707075A
:101224000707070707070707070707070708080847
:10123400080808080808080808080808080808082A
:10124400080808080808080808080808080808081A
:10125400080808080808080808080808080808080A
:1012640008080808080808080808080808080808FA
:1012740008080808080808080808080808080808EA
:1012840008080808080808080808080808080808DA
:1012940008080808080808080808080808080808CA
:0E12A4000808080808080808080808080800D4
:00000001FF
